:020000040800F2
:10000000D0060020D5280008F9060008FB060008E5
:10001000FF060008030700080707000800000000AB
:100020000000000000000000000000000D070008B4
:100030000B070008000000000F070008B9060008C1
:100040001107000813070008150700081707000824
:10005000190700081B0700081D0700081F070008F4
:10006000210700082307000825070008EF280008DB
:1000700027070008290700082B0700082D0700089C
:100080002F0700083107000833070008EF28000891
:10009000EF280008EF280008EF2800083D070008B7
:1000A0003F0700084107000843070008450700080C
:1000B00067060008470700081906000849070008F6
:1000C0004B0700084D0700084F070008F905000816
:1000D0005107000853070008550700085707000894
:1000E000590700085B0700085D07000800F002F8E8
:1000F00000F03AF80AA090E8000C82448344AAF188
:100100000107DA4501D100F02FF8AFF2090EBAE885
:100110000F0013F0010F18BFFB1A43F0010318473B
:100120008C2E0000AC2E0000103A24BF78C878C195
:10013000FAD8520724BF30C830C144BF04680C60ED
:10014000704700000023002400250026103A28BF35
:1001500078C1FBD8520728BF30C148BF0B60704739
:100160001FB51FBD10B510BD02F0D9FB1146FFF73A
:10017000F7FF00F043F902F0F7FB03B4FFF7F2FFDB
:1001800003BC00F0FDFA00000021002905DAF9485F
:100190000068002801DA01207047F748006840F63F
:1001A000B832904201D20220F6E70020F4E701289D
:1001B00003D10121F14A116004E0022802D101219A
:1001C000EF4A1160704770477047704770470246AA
:1001D000704770477047704770477047704700B569
:1001E00087B00121042000F06CFE0121084600F0D8
:1001F00068FE0121082000F057FE1E208DF8140033
:1002000000208DF8150001208DF816008DF81700DC
:1002100005A800F0CAFA1C208DF8040000208DF813
:10022000050002208DF8060001208DF8070001A8C6
:1002300000F0BBFA8820ADF8180004208DF81B00F0
:1002400003208DF81A0006A9CE4800F077FB0420A1
:10025000ADF808000020ADF80A000120ADF80C0050
:100260000020ADF80E00ADF8100002A9C64801F05C
:100270005DFB02A94FF0804001F058FB6021C248AD
:1002800001F00CFC60214FF0804001F007FC0421DC
:10029000BD4801F04BFE0421080701F047FE802114
:1002A000B94801F04CFE8021C80501F048FE01214B
:1002B000880701F0B9FB0121B34801F0B5FB012229
:1002C0000421B14801F0CBFB01220421080701F011
:1002D000C6FB07B000BD00B587B00020ADF8080030
:1002E0004FF48270ADF80A000020ADF80C00ADF8B4
:1002F0000E000120ADF810004002ADF812000820F9
:10030000ADF814008020ADF8160002A99F4802F055
:1003100093F823208DF8040000208DF805000120BB
:100320008DF806008DF8070001A800F03EFA0122C2
:100330006021964802F03DF907B000BD00B587B0D6
:10034000012144F2050000F0AFFD4FF40070ADF85C
:10035000180018208DF81B0003208DF81A0006A93C
:100360008B4800F0EBFA4FF48060ADF818000420E1
:100370008DF81B0006A9864800F0E0FA684601F0F7
:10038000FAFE6946834801F0E5FE4FF47A300290A8
:100390004FF48050ADF80C000020ADF80E004FF483
:1003A0008060ADF810000C20ADF812000020ADF810
:1003B000140002A9774801F058FE0121754801F0A8
:1003C000E0FE684601F0D7FE6946724801F0C2FEC1
:1003D00007B000BD08B54FF42040ADF80000102074
:1003E0008DF8030003208DF8020069466A4800F08A
:1003F000A5FA0121102000F057FD08BD01205F493A
:1004000008606649C1F89C01FFF7E4FFFFF796FF1B
:10041000FFF761FFFFF7E3FE6148006842F21072E8
:10042000B0FBF2F1B1F1807F00D31DE021F07F40FD
:10043000401E4FF0E022506150170F22002807DACB
:1004400013071D0E574B00F00F04241F1D5503E02A
:1004500013071C0E544B1C5400BF00204FF0E02229
:1004600090610720106100BF0121504800F051FE4B
:100470000121464802F085F8FFF7B0FEFFF7ADFE18
:10048000FFF7AAFEFFF7A7FE62E0002048490860D8
:10049000FFF7A0FEFFF79DFE464800684649096841
:1004A000401A464908604648006846490968401AAB
:1004B00045490860FFF789FE0346FFF787FE0446BB
:1004C0001946FFF784FE2C490860FFF77DFE3F497F
:1004D0000968374A126801FB02F002F06BFB8246A2
:1004E00000223B4B02F07AFB06460F46214800688B
:1004F00002F049FB804632463B4602F03FFA044692
:1005000002F0E4FA1B4908600968294A126801FBF5
:1005100002F002F04FFB80464FF033322D4B02F0D9
:100520005DFB04460D462C48006802F043FB06467E
:1005300022462B4602F022FA824602F0F7FA2649BA
:100540000860FFF740FEFFF71FFE0346FFF72FFE90
:100550009BE701B581B0002000904FF43471019801
:100560004843009002E00098401E00900098002848
:10057000F9D10CBD400000203800002098812142B4
:100580009C812142000C01400008004000300140E5
:100590000008014000380140001001400080214265
:1005A0005C00002018ED00E000E400E008000240DC
:1005B0001000002020000020240000201C0000204B
:1005C00030000020340000202C00002044000020D7
:1005D0000000E03F3333D33F3C00002010B5044619
:1005E00000BF0221374802F050F80028F9D0A1B22C
:1005F000344801F0F7FF10BD10B56021324802F019
:1006000050F8012804D1304801F0EEFF2F4908606E
:1006100001202F49087010BD10B504212D4801F0AC
:10062000DDFC2C4801F0ADFC2B4908800846008811
:1006300098B1284801F0A2FC642148432649098862
:1006400090FBF1F025490880254800682249098877
:10065000B0FBF1F02349086004E000201F49088046
:100660002049086010BD10B50421080701F0B6FC50
:100670004FF0804001F085FC1B4908800846008847
:10068000A0B14FF0804001F079FC64214843164945
:10069000098890FBF1F0154908801148006812495B
:1006A0000988B0FBF1F01249086004E000200F490E
:1006B00008800F49086010BD0E480068401C0D49B5
:1006C00008607047003001400038004018000020EA
:1006D000140000200008004000000020020000205C
:1006E0005C00002004000020080000200A00002018
:1006F0000C00002010000020704700BFFEE700BF84
:10070000FEE700BFFEE700BFFEE770477047704797
:100710007047704770477047704770477047704721
:100720007047704770477047704770477047704711
:100730007047704770477047704770477047704701
:1007400070477047704770477047704770477047F1
:1007500070477047704770477047704770477047E1
:1007600070477047704770477047704770477047D1
:1007700070477047704770477047704770477047C1
:10078000014600BF704700BF044A128812F0400FB4
:10079000FAD0C2B2014B1B1D1A80704700380140CD
:1007A00031490143314A1160704770B5002100237F
:1007B0000F22C4780CB32D4C246804F4E064C4F513
:1007C000E064210AC1F10403CA40447804FA03F149
:1007D0008478144021430901254C0678A1550478FA
:1007E00004F01F050124AC4005786D114FF0E026A0
:1007F00006EB8505C5F8004109E0047804F01F0503
:100800000124AC401B4D0678761145F8264070BD9A
:10081000194A0A400243154B1B1F1A60704739B131
:10082000124A121D12680243104B1B1D1A6006E08B
:100830000E4A121D126882430C4B1B1D1A60704732
:10084000042808D14FF0E021096941F004014FF07C
:10085000E022116107E04FF0E021096921F0040175
:100860004FF0E022116170470000FA050CED00E046
:1008700000E400E080E100E080FFFF1F10B50446C7
:10088000CA48844208D10121042000F027FB00213E
:10089000042000F023FB46E0C548844208D1012132
:1008A000082000F01BFB0021082000F017FB3AE0B5
:1008B000C048844208D10121102000F00FFB002124
:1008C000102000F00BFB2EE0BB48844208D1012130
:1008D000202000F003FB0021202000F0FFFA22E09E
:1008E000B648844208D10121402000F0F7FA0021E7
:1008F000402000F0F3FA16E0B148844208D101210B
:10090000802000F0EBFA0021802000F0E7FA0AE0F6
:10091000AC48844207D10121801500F0DFFA0021A4
:10092000A01500F0DBFA10BD10B50121084600F05B
:10093000D5FA0021012000F0D1FA10BD2DE9F041D7
:10094000024600250026002000230024002791F8FD
:1009500003C00CF00F0591F803C01CF0100F03D07A
:1009600091F802C04CEA050591F800C0BCF1000FF7
:1009700031D0146800202BE04FF0010C0CFA00F38A
:10098000B1F800C00CEA03069E4220D183004FF06C
:100990000F0C0CFA03F7BC4305FA03FC4CEA040401
:1009A00091F803C0BCF1280F06D14FF0010C0CFAEE
:1009B00000FCC2F814C00AE091F803C0BCF1480F73
:1009C00005D14FF0010C0CFA00FCC2F810C0401C1D
:1009D0000828D1D31460B1F800C0BCF1FF0F34DD9A
:1009E000546800202EE000F1080C4FF0010808FACE
:1009F0000CF3B1F800C00CEA03069E4221D183003B
:100A00004FF00F0C0CFA03F7BC4305FA03FC4CEA59
:100A1000040491F803C0BCF1280F05D100F1080CC3
:100A200008FA0CF8C2F8148091F803C0BCF1480F22
:100A300007D100F1080C4FF0010808FA0CF8C2F8D1
:100A40001080401C0828CED35460BDE8F0814FF6DA
:100A5000FF710180022181700421C170704702463C
:100A6000002093680B4201D0012000E00020704775
:100A70000146886880B2704702460020D3680B4266
:100A800001D0012000E0002070470146C86880B214
:100A9000704701617047416170470AB1016100E030
:100AA00041617047C16070474FF480320A438261F0
:100AB0008161826182698269704702460020424BEF
:100AC00018684FF68073184040EA021008433E4B06
:100AD000186070473D49C8617047F0B50A46002369
:100AE00000240021002500F00046B6F1004F02D19D
:100AF000354EF16901E0344E7168C0F3034583B2AD
:100B000000F44016B6F5401F08D121F070612E4E5A
:100B1000766826F070662C4F7E6012E000F4801636
:100B2000B6F5801F06D1032606FA05F4A14341F06D
:100B3000706106E0460D360103FA06F6B14341F056
:100B4000706122B1460D360103FA06F6314300F01A
:100B50000046B6F1004F02D11B4EF16101E01A4E82
:100B60007160F0BD30B500228B071C0F0F2303FA14
:100B700004F2154B08338C1053F824309343124C75
:100B800008348D1044F8253023468C1053F8243057
:100B90008C07240F00FA04F423430B4C08348D1007
:100BA00044F8253030BD0A4908607047000801400C
:100BB000000C0140001001400014014000180140E9
:100BC000001C0140002001400000014000002042C4
:100BD000DC002042DD48006840F00100DB4908608D
:100BE00008464068DA490840D84948600846006825
:100BF000D8490840D54908600846006820F480209C
:100C000008600846406820F4FE0048604FF41F006A
:100C100088607047CD49096821F48031CB4A116062
:100C20001146096821F480211160B0F5803F03D09E
:100C3000B0F5802F0ED106E0C449096841F4803137
:100C4000C24A116007E0C149096841F4A021BF4AC6
:100C5000116000E000BF00BF704710B501460022E0
:100C6000002300204A11012A02D1B84C236806E073
:100C7000022A02D1B54C236A01E0B44C636A01F048
:100C80001F02012494401C4201D0012000E00020FA
:100C900010BD38B5002000900024002500BF312091
:100CA000FFF7DBFF05460098401C00900098B0F568
:100CB000A06F01D0002DF2D03120FFF7CEFF08B198
:100CC000012400E00024204638BD014600209F4A50
:100CD000106820F0F80040EAC100106070479E499B
:100CE0000860704702460020984B586820F47C103A
:100CF00042EA01031843954B5860704796490866CD
:100D0000704701460020914A506820F003000843D4
:100D1000506070478D48406800F00C0070470146F5
:100D200000208A4A506820F0F00008435060704765
:100D300001460020854A506820F4E0600843506076
:100D4000704701460020814A506820F4605040EA14
:100D5000C1005060704729B17C4A527A02437B4BF4
:100D60005A7204E0794A527A8243784B5A72704739
:100D70007A490860704701460020744A506820F4A0
:100D800040400843506070470021754A11706F4A17
:100D900082F82010012802D0042808D103E00121A4
:100DA0006F4A117004E005216D4A117000E000BF28
:100DB00000BF70476B49086070476449096A014386
:100DC000624A11627047674944390860704730B51C
:100DD00000210022002400235C4D6D6805F00C0109
:100DE00021B1042905D0082923D105E05E4D056015
:100DF00022E05D4D05601FE0544D6D6805F47012F2
:100E0000524D6D6805F48034022505EB92421CB901
:100E1000564D554305600BE04C4D6D6815F4003F91
:100E200003D0524D5543056002E04F4D55430560D8
:100E300002E04D4D056000BF00BF444D6D6805F0F8
:100E4000F00109094A4D6B5C0568DD4045603F4D86
:100E50006D6805F4E061090A454D6B5C4568DD404D
:100E600085603A4D6D6805F46051C90A404D6B5C70
:100E70004568DD40C560354D6D6805F44041890B1E
:100E80003C4D6B5CC568B5FBF3F5056130BD29B120
:100E90002E4A526902432D4B5A6104E02B4A526993
:100EA00082432A4B5A61704729B1284A926902430A
:100EB000264B9A6104E0254A92698243234B9A614A
:100EC000704729B1214AD2690243204BDA6104E01C
:100ED0001E4AD26982431D4BDA61704729B11B4A11
:100EE000D2680243194BDA6004E0184AD2688243A0
:100EF000164BDA60704729B1144A12690243134B4A
:100F00001A6104E0114A12698243104B1A6170475A
:100F100014494039086070470F49C86470470B494D
:100F2000C87170470948406A40F0807007494862BC
:100F3000704701460020054A92680A4201D001200C
:100F400000E000207047014988727047001002409D
:100F50000000FFF8FFFFF6FE00004242D8004242C8
:100F6000201002408004424200127A0000093D0035
:100F7000480000205800002001684FF6FE72114022
:100F800001600021016041608160C1608C4988423C
:100F900008D18B490839496841F00F01884A083A5D
:100FA00051608AE086491431884208D18449083961
:100FB000496841F0F001824A083A51607DE0804979
:100FC0002831884208D17E490839496841F4706166
:100FD0007B4A083A516070E079493C31884208D137
:100FE00077490839496841F47041754A083A5160B7
:100FF00063E073495031884208D171490839496822
:1010000041F470216E4A083A516056E06C496431EF
:10101000884208D16A490839496841F47001684A30
:10102000083A516049E066497831884208D16449FC
:101030000839496841F07061614A083A51603CE002
:101040006049884206D1011F096841F00F01021F63
:10105000116032E05B491431884208D15949091FB7
:10106000096841F0F001574A121F116025E0554907
:101070002831884208D15349091F096841F4706139
:10108000504A121F116018E04E493C31884208D185
:101090004C49091F096841F470414A4A121F116006
:1010A0000BE048495031884207D14649091F096879
:1010B00041F47021434A121F1160704710B500229D
:1010C000026847F6F0739A430C6A8B6823430C69F5
:1010D00023434C6923438C692343CC6923434C6AE3
:1010E00023438C6A23431A430260CB6843600B6836
:1010F00083604B68C36010BD002101604160816066
:10110000C160016141618161C161016241628162CD
:10111000704721B1026842F00102026004E00268F7
:101120004FF6FE731A40026070471AB103680B4312
:10113000036002E003688B430360704741607047BF
:101140000146486880B2704701460020002211F035
:10115000805F03D01B4B083B1A6802E0184B083B2A
:101160001A680A4201D0012000E00020704710F008
:10117000805F03D01349091F086002E01049083955
:101180004860704701460020002211F0805F03D0C4
:101190000C4B083B1A6802E0094B083B1A680A42EC
:1011A00001D0012000E00020704710F0805F03D0E4
:1011B0000449091F086002E0014908394860704786
:1011C000080002400804024010B50446FE4884426C
:1011D00008D10121C014FFF781FE0021E014FFF7C0
:1011E0007DFEC4E0B4F1804F08D101210846FFF72D
:1011F00082FE00210120FFF77EFEB8E0F348844222
:1012000008D101210220FFF776FE00210220FFF71E
:1012100072FEACE0EE48844208D101210420FFF7C1
:101220006AFE00210420FFF766FEA0E0E948844240
:1012300008D101210820FFF75EFE00210820FFF7FA
:101240005AFE94E0E448844208D101211020FFF7BF
:1012500052FE00211020FFF74EFE88E0DF48844256
:1012600008D101212020FFF746FE00212020FFF7B2
:1012700042FE7CE0DA48844208D101214014FFF7A5
:101280002DFE00216014FFF729FE70E0D54884424E
:1012900009D10121C804FFF721FE00214FF40020ED
:1012A000FFF71CFE63E0D048844209D10121080504
:1012B000FFF714FE00214FF48010FFF70FFE56E0F9
:1012C000CA48844209D101214805FFF707FE0021E1
:1012D0004FF40010FFF702FE49E0C548844208D1F0
:1012E00001214020FFF707FE00214020FFF703FE09
:1012F0003DE0C048844208D101218020FFF7FBFD7A
:1013000000218020FFF7F7FD31E0BB48844208D17F
:1013100001218015FFF7EFFD0021A015FFF7EBFD80
:1013200025E0B648844209D101210804FFF7D6FD23
:1013300000214FF48030FFF7D1FD18E0B04884421F
:1013400009D101214804FFF7C9FD00214FF4003005
:10135000FFF7C4FD0BE0AB48844208D101218804AB
:10136000FFF7BCFD00214FF48020FFF7B7FD10BD53
:1013700000220288944B98420ED0994B98420BD091
:10138000B0F1804F08D0914B984205D0904B9842D5
:1013900002D0904B984204D14FF68F731A404B887D
:1013A0001A438D4B984207D08C4B984204D04FF68D
:1013B000FF431A40CB881A4302808B8883850B88B1
:1013C0000385814B98420BD0854B984208D08B4BBC
:1013D000984205D08A4B984202D08A4B984201D15C
:1013E0000B7A038601238382704770B500240022A4
:1013F0000023058C4FF6FE7635400584028C8388E9
:10140000048B4FF68F752C40B51E2C400D882C4355
:10141000751E2A400D892A434D882A436A4DA842E9
:101420000BD06F4DA84208D0744DA84205D0744D22
:10143000A84202D0734DA84213D14FF6F7752A4047
:101440004D892A434FF6FB752A408D882A434FF673
:10145000FF652B404FF6FF552B408D892B43CD89DF
:101460002B4383800483CD888586028470BD70B54C
:10147000002400220023058C4FF6EF7635400584CA
:10148000028C8388048B48F6FF752C404FF6FF458D
:101490002C400D884FF6FF7606EA05252C434FF6C3
:1014A000DF752A400D8906EA05152A434D8806EAAC
:1014B00005152A43444DA84202D0494DA8421DD1EA
:1014C0004FF67F752A404D894FF6FF7606EA0515DF
:1014D0002A434FF6BF752A408D8806EA05152A4330
:1014E0004FF6FF352B404FF2FF752B408D8906EAF2
:1014F00085052B43CD8906EA85052B43838004832C
:10150000CD880587028470BD70B5002400220023B9
:10151000058C4FF6FF6635400584028C8388848BEA
:101520004FF68F752C404FF6FC752C400D882C43E0
:101530004FF6FF552A400D894FF6FF7606EA05253E
:101540002A434D8806EA05252A431F4DA84202D0AA
:10155000234DA8421DD14FF2FF752A404D894FF609
:10156000FF7606EA05252A434FF6FF352A408D8887
:1015700006EA05252A434EF6FF752B404DF6FF750A
:101580002B408D8906EA05152B43CD8906EA051502
:101590002B4383808483CD888587028470BD70B59A
:1015A000002200230024058C4EF6FF76354005848A
:1015B000038C8488828B48F6FF752A404FF6FF45DE
:1015C0002A400D8820E00000002C0140000400406B
:1015D00000080040000C00400010004000140040D3
:1015E00000340140004C01400050014000540140D3
:1015F00000180040001C0040002000400040014056
:1016000000440140004801404FF6FF7606EA0525F8
:101610002A434DF6FF752B400D8906EA05352B430D
:101620004D8806EA05352B43FA4DA84202D0FA4D03
:10163000A84208D14BF6FF752C408D894FF6FF76F6
:1016400006EA85152C4384808283CD88A0F840501B
:10165000038470BD828B4FF2FF331A408283828BEA
:101660004FF6FF7303EA01231A4382837047F0B5F4
:101670000C461546002200210026078C4EF6FF7C02
:1016800007EA0C070784828B018C4FF6FF7707EA85
:10169000043640F6FF473A404FF6FF7707EA052742
:1016A0003A434FF6FF7707EA03373A43D94FB84238
:1016B0000ED0D94FB8420BD0B0F1804F08D0D74FE1
:1016C000B84205D0D64FB84202D0D64FB84206D164
:1016D0004DF6FF77394046F48057394305E047F629
:1016E000FF57394044F48057394382830184F0BD69
:1016F000828B4FF6F3731A408283828B0A43828374
:101700007047F0B50C461546002200210026078CD4
:101710004FF6FF6C07EA0C070784828B018C4FF6AB
:10172000FF7707EA04264FF60C773A404FF6FF772B
:1017300007EA03172F433A43B64FB8420ED0B64FCD
:10174000B8420BD0B0F1804F08D0B44FB84205D0AA
:10175000B34FB84202D0B34FB84206D14FF6FF574D
:10176000394046F48077394305E04FF2FF5739405E
:1017700044F48077394382830184F0BD028B4FF2B9
:10178000FF331A400283028B4FF6FF7303EA0123F3
:101790001A4302837047F0B50C461546002200211B
:1017A0000026078C4FF6EF7C07EA0C070784028BB4
:1017B000018C4FF6FF7707EA041640F6FF473A40E0
:1017C0004FF6FF7707EA03373A434FF6FF7707EA0A
:1017D00005273A438F4FB8420ED08F4FB8420BD0F7
:1017E000B0F1804F08D08D4FB84205D08C4FB84231
:1017F00002D08C4FB84206D14FF6DF77394046F021
:101800001007394305E04FF65F77394044F0100781
:10181000394302830184F0BD028B4FF6F3731A4003
:101820000283028B0A4302837047F0B50C461546CB
:1018300000220021068C4FF6FE773E400684028B84
:10184000018C4FF60C7632407E1C06EA03162E43BE
:101850003243704EB0420ED06F4EB0420BD0B0F15A
:10186000804F08D06D4EB04205D06D4EB04202D0D0
:101870006C4EB04206D14FF6FD76314044F0010681
:10188000314305E04FF6F576314044F0010631432F
:1018900002830184F0BD70B505460C465D48854263
:1018A0000ED05D4885420BD0B5F1804F08D05B4823
:1018B000854205D05A48854202D05A48854200D117
:1018C00000E000BF208850B92389A288618828469B
:1018D000FFF7ABFFE1882846FFF79EFF25E0208851
:1018E00004280AD12389A28861882846FFF753FF7C
:1018F000E1882846FFF742FF17E0208808280AD130
:101900002389A28861882846FFF7FBFEE1882846E4
:10191000FFF7EEFE09E02389A28861882846FFF7D9
:10192000A6FEE1882846FFF795FE70BD2DE9F0413F
:1019300005460C4600260127608808B9022600E00B
:101940000026A088012801D1022700E00127208875
:10195000A0B92389A28861882846FFF766FFE1883D
:101960002846FFF759FF23893A4631462846FFF7B4
:1019700012FFE1882846FFF701FF13E02389A288C0
:1019800061882846FFF707FFE1882846FFF7F6FE43
:1019900023893A4631462846FFF747FFE188284623
:1019A000FFF73AFFBDE8F0810A884B881A438B881D
:1019B0001A43CB881A430B891A434B891A438B89E4
:1019C0001A43A0F8442070474FF6FF718180002130
:1019D0000180C180418001727047002101804180F7
:1019E0008180C180018141818181C1817047002155
:1019F00001804180012181800021C18001817047E7
:101A00000021018041808180C180018141818181EB
:101A100070470000002C01400034014000040040E9
:101A200000080040000C004021B1028842F0010291
:101A3000028004E002884FF6FE731A40028070476D
:101A400031B1B0F8442042F40042A0F8442005E04F
:101A5000B0F84420C2F30E02A0F8442070471AB137
:101A600083890B43838102E083898B4383817047A1
:101A70008182704741EA0203A0F8483070471AB1EA
:101A800083890B43838102E083898B438381704781
:101A900001894FF6F8721140018170470A46002112
:101AA00001894FF68F73194011430181704730B59A
:101AB00004460D4629462046FFF7F0FF208940F0F6
:101AC0000700208130BD2DE9F04104460D46164641
:101AD0001F46602D06D13B46012231462046FFF7C6
:101AE0005AFE05E03B46012231462046FFF79DFEA7
:101AF00029462046FFF7D2FF208940F007002081C9
:101B0000BDE8F08130B50C4600210189C9B24FF61D
:101B1000FF7505EA0325154325432943018130BD9F
:101B20002DE9F04105460E461746984600244346E7
:101B30003A4631462846FFF7E5FF2C894FF6F87004
:101B4000044044F007044FF68F70044044F07004E2
:101B50002C81BDE8F081F0B504460D4616461F46BF
:101B60003B46324629462046FFF7CCFF208940F409
:101B700080402081F0BD0185828270470A460021A5
:101B800001884FF68F731940114301807047F0B5FB
:101B90000C4615461E460021002200230189028BB7
:101BA000038C4FF6F877394021434FF6FC473A4013
:101BB00040F201173A434FF6DD773B404FF6FF778F
:101BC00007EA06172F433B43018102830384F0BDDC
:101BD0000A460021018B4FF68F7319401143018390
:101BE00070470A460021018B48F6FF7319404FF6F3
:101BF000FF7303EA02231943018370470A46002159
:101C0000818B4FF68F7319401143818370470A46C9
:101C10000021818B48F6FF7319404FF6FF7303EAEA
:101C2000022319438183704721B1028842F0800268
:101C3000028004E002884FF67F731A4002807047EA
:101C400021B1828842F00402828004E082884FF64B
:101C5000FB731A408280704721B1828842F00802EB
:101C6000828004E082884FF6F7731A4082807047C2
:101C700021B1828842F00102828004E082884FF61E
:101C8000FE731A40828070470A460021018B4FF68E
:101C9000F77319401143018370470A460021018BF5
:101CA0004FF2FF7319404FF6FF7303EA0223194303
:101CB000018370470A460021818B4FF6F773194064
:101CC0001143818370470A460021818B4FF2FF73D5
:101CD00019404FF6FF7303EA0223194381837047CB
:101CE0000A460021018B4FF6FB7319401143018313
:101CF00070470A460021018B4FF6FF3319404FF61B
:101D0000FF7303EA02231943018370470A46002147
:101D1000818B4FF6FB7319401143818370470A464C
:101D20000021818B4FF6FF3319404FF6FF7303EA12
:101D300002231943818370470A460021018B4FF625
:101D40007F7319401143018370470A460021018BBC
:101D5000C1F30E014FF6FF7303EA02231943018317
:101D600070470A460021818B4FF67F73194011435B
:101D7000818370470A460021818BC1F30E014FF623
:101D8000FF7303EA02231943818370470A46002147
:101D9000018C4FF6FD7319401143018470470A46C8
:101DA0000021018C4FF6F7731940114301847047ED
:101DB0000A460021018C4FF6DF7319404FF6FF737E
:101DC00003EA02131943018470470A460021018C7B
:101DD0004FF67F7319404FF6FF7303EA021319435E
:101DE000018470470A460021018C4FF6FF531940C9
:101DF0004FF6FF7303EA02231943018470470A4632
:101E00000021018C4FF2FF7319404FF6FF7303EA74
:101E100002231943018470470A460021018C4DF6C4
:101E2000FF7319404FF6FF7303EA0233194301842D
:101E3000704730B5002301248C40A3B2048C9C432E
:101E40000484048C02FA01F5ADB22C43048430BD45
:101E500030B5002304248C40A3B2048C9C4304843A
:101E6000048C02FA01F5ADB22C43048430BD70B588
:101E70000346002000241846183001258D40ACB2DE
:101E80001D8CA5431D8409B1082909D100EB61000F
:101E9000056825F0700505600568154305600EE0CE
:101EA0000D1FC5F34E052844056825F4E04505607F
:101EB00005684FF6FF7606EA02263543056070BDD9
:101EC00021B1028842F00202028004E002884FF64B
:101ED000FD731A400280704721B1028842F004026B
:101EE000028004E002884FF6FB731A4002807047BC
:101EF00021B1828842F08002828004E082884FF61D
:101F00007F731A408280704702884FF6F7731A4039
:101F1000028002880A430280704782884FF68F73DE
:101F20001A40828082880A438280704702894FF675
:101F3000F8731A40028102890A43028170470289BC
:101F40004FF67F731A40028102890A43028170476B
:101F5000818470478185704781867047018770470B
:101F600081877047A0F84010704702884FF6FF4302
:101F70001A40028002880A43028070470146888E18
:101F800070470146088F70470146888F70470146A9
:101F9000B1F8400070470146888C70470146088DB3
:101FA000704702460020138A0B4201D0012000E056
:101FB00000207047CA430282704730B502460020B5
:101FC00000230024158A05EA0103958905EA010426
:101FD00013B10CB1012000E0002030BDCA430282E1
:101FE0007047000010B50446FB48844209D1012126
:101FF0008803FEF773FF00214FF48040FEF76EFF69
:1020000032E0F648844209D101214804FEF773FF0B
:1020100000214FF40030FEF76EFF25E0F0488442C7
:1020200009D101218804FEF766FF00214FF48020CA
:10203000FEF761FF18E0EB48844209D10121C80492
:10204000FEF759FF00214FF40020FEF754FF0BE08C
:10205000E548844208D101210805FEF74CFF002124
:102060004FF48010FEF747FF10BD2DE9F04786B012
:1020700005460E460024A24600BFA1460027B089AF
:1020800000B100BF2F462C8A4CF6FF700440F08848
:1020900004432C82AC894EF6F3100440B088318999
:1020A0000843718908430443AC81AC8A4FF6FF4072
:1020B0000440B0890443AC8201A8FEF788FEC648FC
:1020C000874202D1DDF810A001E0DDF80CA0A8895C
:1020D00010F4004F08D00AEBCA0000EB0A10316878
:1020E0004900B0FBF1F807E00AEBCA0000EB0A1068
:1020F00031688900B0FBF1F86420B8FBF0F004010E
:102100002009642101FB1089A88910F4004F08D030
:10211000322000EBC900B0FBF1F000F007000443EF
:1021200008E0322000EB09106421B0FBF1F000F070
:102130000F0004432C8106B0BDE8F0874FF4165120
:10214000016000218180C18001810C214181002139
:102150008181704710B502460020108A4FF2FF03BC
:1021600018400B884C8823438C882343CC88234316
:102170001843108210BD0021018041808180C18000
:10218000704721B1828942F40052828104E0828941
:102190004DF6FF731A4082817047F0B50346002464
:1021A000002600250020A1F510676A3F00D100BF7E
:1021B0001846C1F3421401F01F06012707FA06F57D
:1021C000012C01D10C3004E0022C01D1103000E0D0
:1021D00014301AB107682F43076002E00768AF4365
:1021E0000760F0BD1AB1838A0B43838202E0838AC1
:1021F0008B4383827047028A4FF6F0731A40028243
:10220000028A0A430282704782894FF2FF731A40A2
:10221000828182890A438281704721B1828942F09A
:102220000202828104E082894FF6FD731A408281A6
:102230007047028A4FF6DF731A400282028A0A430D
:102240000282704721B1028A42F48042028204E095
:10225000028A4BF6FF731A4002827047C1F30802EC
:102260008280704701468888C0F3080070478189E2
:1022700041F0010181817047028BD2B20283028B4F
:1022800042EA012202837047028B02F47F420283FA
:10229000028B0A430283704721B1828A42F02002F6
:1022A000828204E0828A4FF6DF731A40828270478E
:1022B00021B1828A42F01002828204E0828A4FF6C3
:1022C000EF731A408282704721B1828A42F008027D
:1022D000828204E0828A4FF6F7731A408282704746
:1022E00021B1828942F40042828103E08289C2F3F3
:1022F0000E028281704721B1828A42F4006282829A
:1023000004E0828A4FF2FF731A4082827047828A09
:102310004FF6FB731A408282828A0A438282704798
:1023200021B1828A42F00202828204E0828A4FF660
:10233000FD731A408282704702460020B1F5007F8B
:1023400000D100BF13880B4201D0012000E0002023
:10235000704701F40072B2F5007F00D100BFCA439C
:102360000280704770B5024600240023002500203B
:10237000A1F510666A3E00D100BFC1F3421501F01D
:102380001F03012606FA03F3012D02D1968933407B
:1023900006E0022D02D1168A334001E0968A3340CE
:1023A0000C12012606FA04F41688344013B10CB15D
:1023B000012000E0002070BD10B500220023A1F52F
:1023C00010646A3C00D100BF0A1201249440A3B2F9
:1023D000DC43048010BD0000003801400044004090
:1023E00000480040004C00400050004010B504463A
:1023F000BE48844208D101218014FEF76FFD002100
:10240000A014FEF76BFD16E0B948844208D1012103
:102410000014FEF770FD00212014FEF76CFD0AE0A9
:10242000B448844207D10121C013FEF764FD0021A6
:10243000E013FEF760FD10BD10B50022028802F423
:1024400041520B884C8823438C882343CC882343F8
:102450000C8923434C8923438C892343CC89234310
:102460001A430280838B4FF2FF74234083830B8ACD
:10247000038210BD2DE9F04F85B005460C464FF0A4
:10248000000902274FF000084FF0010B0026B2466A
:10249000A88B4FF240010840A88302202884B5F899
:1024A0001C90A068022801D100BF38E0A08810B9B4
:1024B0004FF0010B01E04FF0020B8D48854200D137
:1024C00000E000BF6846FEF782FCDDF800A0E0886F
:1024D000B0F5007F0AD14FEA1A2000EB80004000DF
:1024E000A168B0FBF1F0401D86B20BE04FEA4B1043
:1024F000BAFBF0F000EB80004000A168B0FBF1F007
:10250000401D86B20A20B6FBF0F606F00108A6EBE5
:102510000800C0F34F074FF6FF7000EA0828022FAB
:1025200001DBFF2F02DD02274FF00008E08840EAC0
:10253000080038432884A088A1890843618808439B
:102540002188084340F4006040EA0909A5F81C907E
:1025500005B0BDE8F08F0021018041808180C180FD
:10256000018141818181C181072101827047002160
:10257000018041808180C1800221816000218181B0
:10258000704721B1028842F04002028004E00288D4
:102590004FF6BF731A400280704721B1828B42F41C
:1025A0008062828304E0828B4FF6FF331A4082837D
:1025B000704730B5002400230C110125A540ABB2B3
:1025C0001AB185881D43858002E085889D438580FA
:1025D00030BD1AB183880B43838002E083888B432C
:1025E0008380704781817047014688897047A1F5D3
:1025F0007E42FF3A04D0028842F48072028004E0F6
:1026000002884FF6FF631A400280704721B182882A
:1026100042F00402828004E082884FF6FB731A4085
:102620008280704702884FF2FF731A40028002884E
:102630000A4302807047018841F48051018070474D
:1026400021B1028842F40052028004E002884DF673
:10265000FF731A400280704702460020012901D012
:10266000108B00E0908A70470146088A7047B1F5E8
:10267000804F04D1028842F48042028004E0028844
:102680004BF6FF731A400280704702460020138900
:102690000B4201D0012000E000207047CA430281B4
:1026A0007047F0B50246002000240023002501F009
:1026B0000F070126BE40B4B20B1101269E40B3B2F3
:1026C000968806EA03051689264202D00DB101203C
:1026D00000E00020F0BD10B5002201F00F0401233E
:1026E000A3409AB2D343038110BD000000300140E3
:1026F00000380040003C00400CB5002001900090E4
:102700006B48006840F480306949086000BF684841
:10271000006800F4003000900198401C019000987F
:1027200018B90198B0F5A06FF1D16148006810F4B4
:10273000003F02D00120009001E0002000900098AE
:10274000012842D15B48006840F0100059490860F8
:102750000846006820F0030008600846006840F062
:102760000200086052484068514948600846406885
:1027700048600846406840F4806048600846406809
:1027800020F47C1048600846406840F4E810486037
:102790000846006840F08070086000BF4448006848
:1027A00010F0007FFAD04248406820F00300404912
:1027B00048600846406840F00200486000BF3C485E
:1027C000406800F00C000828F9D10CBD10B5FFF7E7
:1027D00093FF10BD10B53648006840F00100344941
:1027E0000860084640683449084031494860084656
:1027F0000068324908402E4908600846006820F405
:10280000802008600846406820F4FE0048604FF4CD
:102810001F008860FFF7DAFF4FF00060284908606A
:1028200010BD10B5002100200022214B5B6803F091
:102830000C0121B1042906D0082928D107E0214B39
:10284000214C236027E01F4B1F4C236023E0184BD3
:102850005B6803F47010164B5B6803F4803202234C
:1028600003EB904022B9194B4343174C23600DE012
:102870000F4B5B6813F4003F04D0144B4343124CDE
:10288000236003E00F4B43430F4C236003E00D4BE9
:102890000D4C236000BF00BF054B5B68C3F30313FF
:1028A0000B4CE15C084B1B68CB40074C236010BD10
:1028B00000100240002002400000FFF8FFFFF6FE7B
:1028C00008ED00E000127A005C00002000093D00E5
:1028D000600000200948804709480047FEE7FEE7FE
:1028E000FEE7FEE7FEE7FEE7FEE7FEE7FEE7FEE7C0
:1028F00004480549054A064B70470000D5270008E3
:10290000ED000008D0000020D0060020D0020020FA
:10291000D002002070477047704770477047754677
:1029200000F028F8AE4605006946534620F007003F
:10293000854618B020B5FFF7DBFFBDE820404FF01B
:1029400000064FF000074FF000084FF0000B21F099
:102950000701AC46ACE8C009ACE8C009ACE8C00966
:10296000ACE8C0098D4670470446AFF300802046AE
:10297000FDF703FC004870477000002010B591EA95
:10298000030F48BF83F0004300F12E82841A71EBDD
:10299000030C05D2121943EB0C03001B61EB0C0175
:1029A000DFF824E14FEA1154A4EB135C1EEA430F55
:1029B00018BF9EEA445F73D023EA0E03DCF1200EB9
:1029C00021EA045143F4801332D322FA0CFE10EBB7
:1029D0000E0023FA0CFE41EB0E01CCF1200E03FA9F
:1029E0000EFE10EB0E0051F10001B1F5801FCCF18D
:1029F000200E32D201EB045112FA0EF2BDE8104063
:102A000058BF7047401C38BF5FEA420218BF70478A
:102A1000002814BF20F0010041F100014FEA4103FA
:102A200013F5001F38BF7047A1F1C04100F0CEB9C7
:102A3000012A43EB0302ACF1200CDCF11F0E32BF84
:102A40004FF0000E23FA0CF310EB030041EB04519E
:102A5000B4EB115FD0D0A1EB045101F5801149080E
:102A60005FEA300001EB04510ED350F1000038BF93
:102A700012FA0EFE08D1BDE81040C9E7401C38BF6D
:102A80005FEA4202CAD1C3E7BDE810404FEA410302
:102A900013F5001F38BF7047A1F1C04100F096B98F
:102AA0009EEA445F08D011EA5E0FBDE8104004BF03
:102AB00001F0004100207047BDE8104070B500F003
:102AC00037F900BF64FBBE3E0000E0FF4FEA410360
:102AD0004FEA5353A3F58063D3F11E03C8BFD3F16C
:102AE000210C0CDD4FF0004242EAC12242EA505272
:102AF00032FA03FC8CEAE17CACEBE1707047102BFE
:102B0000C4BF0020704703F5787CBCF1FF3F04D0C0
:102B10006FF0004282EA2100704770B500F008F9BA
:102B20004992248000207047F2E700004FEA1153D9
:102B3000A3F58063D3F11E03A8BFD3F1200C08DBFB
:102B40004FF0004242EAC12252EA505232FA03F0F8
:102B5000704709420BD4102BC4BF0020704703F507
:102B6000787CBCF1FF3F05D04FF0FF3070474FF04D
:102B70000000704770B500F0DBF800BF4992248078
:102B800000207047F0E710F0004248BF4042B0FA22
:102B900080F310FA03F10AD0C3F11D0303F580633B
:102BA0004FEA415002EB035202EBD12170474FF044
:102BB00000007047B0FA80F310FA03F10AD0C3F1B5
:102BC0001D0303F580634FEA41504FEA035202EBC5
:102BD000D12170474FF0000070470000DFF848C176
:102BE00070B51CEA111E1EBF1CEA13159EEA0C0FDD
:102BF00095EA0C0F00F06F8081EA030423EA4C137E
:102C00004EEAD47E21EA4C1141F4801143F4801342
:102C1000AE44A1FB024CA0FB0365AEF17F7E3619EA
:102C200055EB0C05A1FB034C4CF10003A0FB021C6F
:102C300016EB0C06654153F10003094218BF46F03C
:102C4000010613F4007F0BD14FEA03314FEA053040
:102C5000340341EA155140EA16506FF003020AE0CE
:102C60004FEAC3214FEAC520F40241EA555140EA38
:102C700056506FF0020202EB2E4201EB025585EA3C
:102C8000CE710AD05FEA440C18BF24F0004450F122
:102C9000000041F1000120EAD47040F2FE7C624560
:102CA00000D270BDA84214BF4FF080444FF04044A2
:102CB000002E08BF0024BEF1806FA8BFA1F1C04163
:102CC000BDE8704080F282804FF0000001F1C04109
:102CD00001F0004170479EEA0C0F0CEA131518BF73
:102CE00095EA0C0F06D04FF0000081EA030E0EF0BB
:102CF000004170BD00F01CF88900013E00F007B8EB
:102D000000F009B84FEA430C5FEA5C5C08D081EA46
:102D1000030100F05BB84FEA410C5FEA5C5CF6D15E
:102D20004FF00000014970470000FF070000F87FE6
:102D30000EF1020E2EF0030E5EF8046B364205D43F
:102D4000012A43EB030515F5001F12D8012841EBBA
:102D5000010C1CF5001F0CD80ED14FEAD17C15F5E3
:102D6000001F0CEB4C0C0CF1020C08BF4CEBD37C9D
:102D700004E04FF0080C01E04FEAD37C0CEB4C056B
:102D800026FA05F606F00706B6F1040C06D20EEB9D
:102D9000860CBDE870404CF0010C6047DFE80CF099
:102DA000090B02024FF000414FF00000A1F5002195
:102DB00070BD19461046012851EB010418BFD4F527
:102DC000001484BF002001F0004170BD0808A0F588
:102DD00000114FEA3101704710B591EA030F48BF67
:102DE00083F000433FF5D2AD841A71EB030C07D298
:102DF00012198CF0004C43EB0C03001B61EB0C012F
:102E0000DFF8A4E14FEA1154A4EB135C1EEA430F70
:102E100018BF9EEA445F00F0B08023EA6E0352427E
:102E200021EA0451C3EB6E0338BF5B1EDCF1200EB8
:102E300025D322FA0CFE10EB0E0043FA0CFE41EBF8
:102E40000E01CCF1200E03FA0EFE10EB0E0051F134
:102E50000001CCF1200E29D412FA0EF201EB04513C
:102E6000BDE8104058BF7047401C1CBFB2F1004F76
:102E7000704700280CBF491C20F00100704712EB7E
:102E8000020E43EB030218BF4FF0010E4EEA42025E
:102E9000ACF1200CDCF11E0E54D943FA0CFE10EB01
:102EA0000E0051F1FF31CCF11E0ED5D50EF1010E01
:102EB00012FA0EFE404141EB010101EB445C5FEA76
:102EC0005C5C10D910EBDE7001EB045138BFBEF131
:102ED000004FBDE8104018BF704700280CBF491CC8
:102EE00020F00100704730D24FEAD42C11F50011C8
:102EF00024F400641BD0B1FA81F20B3AA41AA41E88
:102F0000D2F12003914030FA03F31943904001EBD2
:102F1000CC71002C01EB0451BDE81040A8BF7047F4
:102F200001F1C0414FF0000001F000417047B0FADC
:102F300080F310FA03F100D110BDE41A173C4805E4
:102F4000C90AE4E701EB045110BD491001EB04513B
:102F5000BDE810404FEA300002E04FF0000170473A
:102F60004A0008BF0042F8D0B2F5001F28BF7047E2
:102F700001F000414FF0000070479EEA445F07D027
:102F800011EA5E0FBDE8104004BF00210020704729
:102F9000BDE8104070B5FFF7CBFE00BF40DFF63E46
:102FA00083F00041104670470000E0FFCC2F00087E
:102FB0000000002070000000280100083C300008DC
:102FC00070000020600600004401000800000000BE
:102FD00000000000000000000000000000000000F1
:102FE00000000000000000000000000000000000E1
:102FF00000000000000000000000000000000000D1
:1030000000000000000000000000000000000000C0
:10301000000000000000000001020304010203049C
:10302000060708090204060800A24A04000000007E
:0C3030000000000001020304060708096C
:04000005080000ED02
:00000001FF
